:020000040800F2
:100000000020002031340008613200086732000807
:1000100000000000000000000000000000000000E0
:100020000000000000000000000000006D32000829
:100030000000000000000000773200088132000854
:1000400081340008813400088134000881340008BC
:1000500081340008813400088134000881340008AC
:10006000813400088134000881340008813400089C
:10007000813400088134000881340008813400088C
:100080008134000881340008000000008134000839
:10009000813400088134000881340008813400086C
:1000A000813400088134000881340008913200084E
:1000B00081340008000000008134000800000000C6
:1000C00010B5064C2378002B07D1054B002B02D02E
:1000D000044800E000BF0123237010BDF801002098
:1000E00000000000BCA30008044B10B5002B03D097
:1000F0000349044800E000BF10BDC04600000000F6
:10010000FC010020BCA300080023C25C0133002ACC
:10011000FBD1581E7047000002B4714649084900DF
:10012000095C49008E4402BC7047C04603B4714666
:10013000490840004900095E49008E4403BC7047ED
:10014000002243088B4274D303098B425FD3030A16
:100150008B4244D3030B8B4228D3030C8B420DD329
:10016000FF22090212BA030C8B4202D312120902B7
:1001700065D0030B8B4219D300E0090AC30B8B42F5
:1001800001D3CB03C01A5241830B8B4201D38B03A3
:10019000C01A5241430B8B4201D34B03C01A524148
:1001A000030B8B4201D30B03C01A5241C30A8B428B
:1001B00001D3CB02C01A5241830A8B4201D38B0276
:1001C000C01A5241430A8B4201D34B02C01A52411A
:1001D000030A8B4201D30B02C01A5241CDD2C3098C
:1001E0008B4201D3CB01C01A524183098B4201D308
:1001F0008B01C01A524143098B4201D34B01C01AF3
:10020000524103098B4201D30B01C01A5241C3086A
:100210008B4201D3CB00C01A524183088B4201D3D9
:100220008B00C01A524143088B4201D34B00C01AC5
:100230005241411A00D20146524110467047FFE731
:1002400001B5002000F0F0F802BDC0460029F7D04B
:1002500076E7704703460B437FD4002243088B4266
:1002600074D303098B425FD3030A8B4244D3030B3D
:100270008B4228D3030C8B420DD3FF22090212BA02
:10028000030C8B4202D31212090265D0030B8B427E
:1002900019D300E0090AC30B8B4201D3CB03C01A68
:1002A0005241830B8B4201D38B03C01A5241430B43
:1002B0008B4201D34B03C01A5241030B8B4201D333
:1002C0000B03C01A5241C30A8B4201D3CB02C01A9E
:1002D0005241830A8B4201D38B02C01A5241430A16
:1002E0008B4201D34B02C01A5241030A8B4201D305
:1002F0000B02C01A5241CDD2C3098B4201D3CB01AC
:10030000C01A524183098B4201D38B01C01A52415A
:1003100043098B4201D34B01C01A524103098B425E
:1003200001D30B01C01A5241C3088B4201D3CB0049
:10033000C01A524183088B4201D38B00C01A52412C
:1003400043088B4201D34B00C01A5241411A00D2DC
:1003500001465241104670475DE0CA0F00D0494245
:10036000031000D34042534000229C4603098B42B5
:100370002DD3030A8B4212D3FC22890112BA030A3D
:100380008B420CD3890192118B4208D389019211BF
:100390008B4204D389013AD0921100E08909C30944
:1003A0008B4201D3CB01C01A524183098B4201D346
:1003B0008B01C01A524143098B4201D34B01C01A31
:1003C000524103098B4201D30B01C01A5241C308A9
:1003D0008B4201D3CB00C01A524183088B4201D318
:1003E0008B00C01A5241D9D243088B4201D34B0033
:1003F000C01A5241411A00D20146634652415B1075
:10040000104601D34042002B00D549427047634655
:100410005B1000D3404201B5002000F005F802BD9A
:100420000029F8D016E770477047C0468446100090
:1004300062468C461900634600E0C0461FB500F0D6
:100440007DFF002801D40021C8421FBD10B500F077
:10045000CDFE4042013010BD10B500F06FFF002806
:1004600001DB002010BD012010BDC04610B500F01A
:1004700065FF002801DD002010BD012010BDC04631
:1004800010B500F0F5FE002801DC002010BD0120B1
:1004900010BDC04610B500F0EBFE002801DA0020C8
:1004A00010BD012010BDC04670B500220C4B0400E9
:1004B0000D00FFF7EFFF002804D12000290001F014
:1004C000BDFD70BD064B00222000290001F006FA98
:1004D00001F0B4FD80231B069C466044F1E7C04652
:1004E0000000E04170B505000C0000220023280048
:1004F0002100FFF7B1FF002808D12800210000F0FB
:100500000FF802000B001000190070BD80231B06BD
:10051000E118280000F004F8002342428B41F2E782
:1005200070B500220B4B0D00040000F06BFFFFF7CD
:10053000BBFF060001F0E8FD0022074B00F062FF60
:1005400002000B002000290001F0C8F9FFF7ACFF02
:10055000310070BD0000F03D0000F04170B50600B4
:10056000080001F0A1FD0022064B00F04BFF0D003A
:100570000400300001F0C8FD2B00220000F004F858
:1005800070BDC0460000F041F0B54F464646D64625
:100590000D000400C0B51F0011002803620F400ABF
:1005A00010437A00520DE3003C039146640AFA0FAF
:1005B0004F0F6E0027439246B846760DED0FC900E7
:1005C000954200D199E04C46341BA446002C00DC37
:1005D0007CE04A46002A00D1B8E0C54A964200D1E4
:1005E0001CE180223C0012041443A0466246382AD3
:1005F00000DD61E11F2A00DDCCE164462022121BF0
:10060000444694400F00A14664469140E7404C4662
:100610004A1E91413C43424621436446E240801ACF
:100620005C1AA3429B415F42C71B3B0200D4D0E04F
:100630007F027F0A002F00D1FFE0380001F012FE98
:1006400001000839202322005B1A8F40DA408C40D9
:100650001743B14200DAFFE0891B4B1C1F2B00DD62
:10066000A8E020223900D21A200094409140D840BE
:10067000621E9441DF40002601430C43630709D00A
:100680000F232340042B05D0231DA342A441644221
:100690003F191C003B0200D49EE0954B01369E4260
:1006A00000D1B7E0934AE40817407B0771057F0249
:1006B00023433F0B4A0D12053A43ED072A43180026
:1006C0001100E0BCBA46B146A846F0BD002C4BD0A4
:1006D0004C46A41BA446002E00D023E104001C437A
:1006E00000D1AFE16246541E012A00D115E2804DCF
:1006F000AC4500D1C8E1A4461BE14A46B21A944673
:10070000002A00DCACE04A46002A43D0784A9642F0
:1007100000D1AFE180223C0012041443A04662469F
:10072000382A67DC1F2A00DC5FE14746203AD740C1
:100730006246202A05D064464022121B444694405B
:1007400021434A1E91410C003C4357E03A000A43C2
:1007500000D105E12200013A012C00D182E1644C74
:10076000A4455BD0944641E7634C771C274200D0F8
:10077000C4E004001C43002E00D069E1002C00D12D
:10078000BFE144460C4300D0D0E14207DB081343ED
:10079000C00829E03A000A4300D170E1624664468D
:1007A000013A012C00D1E0E0514CA44500D161E1B7
:1007B0009446B4E73A001F39CA401100202B03D0F9
:1007C0004022D31A9F403C43631E9C4100270026D1
:1007D0000C43630700D053E7B446E4087B07234388
:1007E000F808434A94451DD06246070352053F0B63
:1007F000520D60E744460C43621E9441E4189C424B
:100800009B415F423F183B02E3D5394B01369E4284
:1008100000D0B5E03200002700234CE74207DB0898
:100820001343C0081A00024300D1E1E180273F03CF
:1008300007433F032E4A3F0B3DE7200001F012FD26
:10084000010018311F2900DCFCE60838844027002D
:100850000024B14200DBFFE6264A761A17400DE776
:10086000002A2FD04A46921B9446002E00D1ADE0BC
:100870001F4A914500D10FE18022120410436246C5
:10088000382A00DD0FE11F2A00DD80E164462022C6
:100890001E00121B6746040093409440FE405A1EFF
:1008A0009341F84034431C43804464188C42BF4158
:1008B0007F424E464744A6E742460A4311004A1E7D
:1008C0009141ADE60C4C721C224200D0A1E0020026
:1008D0001A43002E00D0FAE0002A00D145E13A0088
:1008E0000A4300D046E14207DB081343C0087BE718
:1008F000FF070000FFFF7FFFFE07000047465C1A6E
:10090000C21BA342BF417F42B94617004A46BF1AE5
:100910003A0200D58DE023003B4300D08AE6002058
:10092000002561E7B44CA14500D1ADE0802424044A
:1009300020436446382C3DDC62461F2C00DDB7E0C6
:1009400020251E002D1B0400AB40AC40D640D040FB
:1009500042465D1EAB413443121A904623432CE0BD
:100960004207DB081343C0083BE75C189C429B41ED
:1009700040445B42C71801263B0200D429E7022607
:100980009E4A63081740012214401C43FB071C4386
:100990007F0873E64446203AD4406246202A05D0B8
:1009A00067464022D21B4746974039434A1E914131
:1009B000214335E60343581E8341CC1AA142BF416F
:1009C00043467F4255464E46DF1B2EE602001A4341
:1009D00000D1BDE062466446013A012C00D1E5E059
:1009E000854CA44558D0944649E764462022121B02
:1009F000444694400F00A14664469140E7404C466F
:100A00004A1E91413C4342460C436146CA4080180D
:100A1000F4E6794CA24200D1FDE6591899429B4177
:100A200040445F42C719FC07490816000C437F0881
:100A3000CFE6CC1AA142BF4143467F42181A554621
:100A4000C71BF7E5C9087B0755460B43F808C8E6FE
:100A5000002C00D081E043460B4315D180200025B7
:100A60000003E3E65C1AA3429B41C71B5B420126DD
:100A7000FF1ADAE54207DB081343C008D2E6420753
:100A8000DB081343C008ACE643464246C9085B078F
:100A900055460B43D008C5E6434642465B07C908A6
:100AA0000B43D008BEE603431C00631E9C41FCE6DA
:100AB0000200203CE24014006246202A03D0402578
:100AC000AD1AA8400343581E8341234375E7002A0B
:100AD000E2D03A000A43CDD04207DB08134380221C
:100AE000C0081203104206D0FC08144203D12000B3
:100AF000CB087A0713435A0FDB005207DB08134376
:100B000090E643460B4300D109E743464246C908F5
:100B10005B0755460B43D00866E6CC1AA1428941D3
:100B20003F1A4942554601267F1A7EE542465C1A25
:100B3000871AA34292415242BF1A3A023DD5CC1ABB
:100B4000A1428941434649421F1A55467F1A95E5FD
:100B50007B07C9080B43F80843E64446DB080C430F
:100B600030D142071343C0085CE67B07C9080B433A
:100B7000F80839E65C189C429B4140445B42C71828
:100B80003B0200D425E61D4B01261F4021E6040050
:100B9000203AD4406246202A04D040226646921B66
:100BA000904003435A1E93411C437EE65C188C42DE
:100BB0008941404449424718DDE623003B4300D1C8
:100BC000ADE606E6440723438024C0082403204200
:100BD00008D04246D608264204D155463000CB08FC
:100BE00051070B435A0FDB00DB085207134319E68A
:100BF0000023014A1F005EE5FF070000FFFF7FFFA3
:100C0000F0B557464E464546DE46E0B581460500FE
:100C10000C03480092461F0085B0240B400DCE0FF8
:100C2000002800D156E1D44B984200D172E16B0FFD
:100C3000E4001C4380231B0423439846CF4BED0064
:100C40009B4600239946834400933C037B00504617
:100C5000240B5B0DFF0F002B00D11FE1C64A93420E
:100C600000D162E1C549420F8C46E4005946144365
:100C7000802263441204CB1A14439B46C200002016
:100C800033007B409A464B460F2B27D8BC499B002C
:100C9000CB589F46B246009B022B16D0032B00D1A7
:100CA0008EE2012B00D0D9E000230024002552461B
:100CB0001B052343D20713432800190005B0F0BCDD
:100CC000BB46B246A946A046F0BD00240025AA4B6B
:100CD000EDE7BA46A04615000090DCE7444500D297
:100CE000C7E100D1C2E101235B429C462E00404691
:100CF0000025E3442302140E1C431B0C99462304D5
:100D00001F0C1202494600920197FFF79FFA02005A
:100D10007A430B04310C804619438A4207D90123D8
:100D20005B429C460919E0448C4200D807E2881ACD
:100D30004946FFF78BFA09048C4631046646019A4E
:100D4000090C4243030031438A4204D90919013B8B
:100D50008C4200D8EDE1881A424612041A439046AC
:100D60004146009B0E041B0C1F000293009B360C97
:100D70001B04190C0B007343120C7E430391514367
:100D80007A431F0CBC4676186644B14203D98021D1
:100D900049028C466244310C8A1831041E04360C18
:100DA0008E19904202D312D1B54210D24346591E39
:100DB000009B9C4665441F009D429B415B421B1962
:100DC000C018844200D2A0E100D19BE18846AE1B4E
:100DD000B542AD41801A6D42401B844200D1D5E13D
:100DE0004946FFF733FA019A0B044243310C0500E0
:100DF00019438A4200D96CE1881A4946FFF726FA5E
:100E0000019A360442430904360C03000E43B242F1
:100E100000D953E10398B61A02002D041D43029F26
:100E20002B041B0C5A437B439C46290C4843130C50
:100E3000844463447943984203D980204002844625
:100E40006144180C12041B04120C41189B188E42AA
:100E500000D2FFE000D1FAE001231D43494A5A4481
:100E6000002A00DCAAE06B0700D03DE1ED08434614
:100E7000DB0106D54246444B1A4090468022D20000
:100E80005A44424B9A4200DD1FE743465B071D432D
:100E9000434652055C02240B530D08E75246224399
:100EA00000D17BE0002C00D1FAE0200001F0DAF95B
:100EB00002000B3A1D2301009B1A52460839DA4002
:100EC0008C40144352468A40314B58449B468344DD
:100ED0000020D5E64B462343984644D0002C00D151
:100EE000CEE0200001F0BEF9010002000B391D2305
:100EF0005B1A49461000D940083884400B004D4623
:100F00002343984685402348831A9B4600239946ED
:100F100000939AE64B46234398461DD108239946F1
:100F2000063B0025834600938FE65246224309D1B3
:100F3000022349461943184B89469C460024022047
:100F4000E3449DE603234A461A43134B91469C46CD
:100F500052460320E34493E60C239946093BA046FE
:100F60008346009371E60423994600239B46013390
:100F70000025009369E6C046FF07000001FCFFFF63
:100F8000F8A30008FF030000FFFFFFFEFE070000BC
:100F9000F30300000DFCFFFF01F8FFFF49460123AA
:100FA00019438946002401206AE6002380249A46DA
:100FB00000258A4B24037AE601256D4201239B1A02
:100FC000382B00DD70E61F2B00DCBFE01F214942FB
:100FD0008A1A4146D1400A00202B04D04146804B5A
:100FE0005B4499400D436B1E9D4107232A431D001E
:100FF00000241540134200D1D4E00F2100231140FA
:10100000042900D1CBE0111D9142924152429B181C
:101010000A00190200D4C2E001230024002546E69C
:10102000802341461B03194208D01C4206D11C43B1
:101030002403BA461500694B240B38E68024434646
:1010400024031C432403B246644B240B2FE6002BDD
:1010500000D103E7A619681EA64200D28DE08E4299
:1010600000D2A3E000D1B3E00500F5E6AA4200D922
:1010700039E64346DE0758086B081E43ED0739E69C
:10108000484601F0EFF801000200153120321C291A
:1010900000DC2CE74B46083883400025984632E7B1
:1010A00001F0E0F803001A00153220301C2A00DCA1
:1010B00000E75446083B00229C4005E73619013BF7
:1010C000B44200D9A6E6B24200D8A3E6831E361980
:1010D000A0E60919013D8C4200D98DE68A4200D86C
:1010E0008AE6851E091987E60F232B40042B00D1C1
:1010F000BCE605235B42AB429B4104355B42ED08F5
:101100009844B4E6AF4200D960E6824204D800D0E9
:101110005CE6AE4200D859E602235B429C46009B47
:10112000E0449C4665449D429B415B421B19C018AC
:101130004DE68A4200D80EE6831E09190BE68A4264
:1011400000D8F4E5831E98460919F0E525492800E2
:1011500059448D4042468A40691E8D414146D840DF
:10116000D94002432A430B00510700D151E70F2118
:101170001140042900D046E74BE705008E4200D01D
:101180006AE6009A934200D066E667E6164A5A4439
:10119000002A00DC10E701230025984467E65D077C
:1011A0005B021C0BD2080023154380E50098023D2A
:1011B00042008242BF417F423C1936190092DDE76E
:1011C0008024434624031C432403044B240B6EE574
:1011D000009A9A42EAD30500D3E7C046FF07000011
:1011E0003E0400001E040000FF030000F0B54E4660
:1011F0004546DE4657469046E0B517001A03120BE7
:101200000500844619480E034C0091465A00DB0F36
:101210009B46360B640DC90F520D844219D0824291
:1012200010D0012094420ED14E450CD10120C4456E
:1012300009D1594517D0002C05D130002843431E51
:10124000984100E00120F0BCBB46B246A946A0464A
:10125000F0BD330001202B43F5D1A242F3D14B4620
:101260003B43F0D1E2E70020EDE7C046FF07000076
:10127000F0B54746CE460400180016001B031B0BB2
:101280002D4D4A00994680B543000F03A446B04651
:101290003F0B520DC90F5B0DC00FAA4221D0AB42CC
:1012A00013D0002A22D13C43002B02D14D462E43BD
:1012B00022D0002C10D0814222D0022001390840D7
:1012C0000138C0BCB946B046F0BD4D462E4329D1C9
:1012D000002AF0D13C43EED10028F2D10120404257
:1012E000EFE73D0025431DD19342EED0002BE2D124
:1012F0004C462643DFD1E0E70020002CE1D0DCE7BC
:101300009A420ADCE8DB4F45D7D80ED000204F4583
:10131000D7D20029E2D00800D3E743425841400029
:101320000138CEE702204042CBE7C445C5D80020B3
:10133000C445C6D2EDE7C046FF070000F0B54746FA
:10134000CE460400180016001B031B0B2C4D4A0050
:10135000994680B543000F03A446B0463F0B520D9B
:10136000C90F5B0DC00FAA420DD0AB4210D0002AAE
:1013700027D13C43002B11D14D462E430ED10020E6
:10138000002C15D00EE03D00254310D1934218D11A
:101390004D462E430BD1002A02D13C43002C0BD0EA
:1013A000814214D0022001390840013800E00220B7
:1013B000C0BCB946B046F0BD0028F9D1012040427A
:1013C000F6E7002BECD14C462643E9D1EAE79A42F6
:1013D00004DD4342584140000138E9E79A42EBDB23
:1013E0004F45DFD806D000204F45E1D20029E5D097
:1013F0000800DDE7C445D5D80020C445D8D2F5E7BC
:10140000FF070000F0B557464E464546DE46E0B5BC
:1014100098460C034B000600924687B0240B5B0DE8
:10142000CF0F002B00D15CE1D94A934200D175E186
:10143000420FE4001443802212041443D54AC5002D
:10144000944663440093002399469B464346424694
:101450001E03D20F5B0050469046360B5B0D00D149
:1014600020E1CB4A934200D162E1CA49420F8C4647
:1014700000996344F6008C46164380229C44120473
:1014800063461643C2000020009300994346013191
:101490008C4649467B4001930F2926D8BE4B8900D4
:1014A00059588F46434601933400150083465B46E6
:1014B000022B16D0032B00D103E2012B00D0CDE08C
:1014C000002200240025019B12052243DB071A435A
:1014D0002800110007B0F0BCBB46B246A946A046A2
:1014E000F0BD00240025AA4AEDE7280C2D042D0CA0
:1014F0002B00110C1204120C5343984613002F00BA
:10150000434399464F434F44BB4647460B003F0C6D
:10151000BA464343DA440293D14504D980277F0277
:10152000B9464B44029353461B0C9B4653461F043B
:1015300043461B041B0C98463B0043440493330C66
:101540003604360C9846330043439946434643439A
:101550002F009A46434677435D43380C4D44451966
:10156000A94503D980235B029946CA443F04280C4D
:101570003F0C2D04ED19270C2404240C030020003B
:1015800050437A4391463A0053440593030C9A46DC
:101590004A43614349445144AB44894503D98023BC
:1015A0005B0299464A4400040B0C000C090409181C
:1015B00020009946434670435C437E435F43030CDF
:1015C0009846A41944444A440397A64204D9802368
:1015D0005B029846474403972304029E9A46059B64
:1015E0005E449846AE42AD4176188E428941000471
:1015F000000C504440446D424719B8469346494256
:101600008946C344D94498428041A845AD41934599
:101610009241894589416D4240422843240C5242FF
:1016200049420A43039B00198018C7184B46DC0D3A
:10163000049B75021D436A1E95414B46F60D7F02C1
:1016400035435A023C431543FB0100D41CE1012100
:101650006A080D401543E207154364084F49614489
:10166000002900DCB0E06B0709D00F222A40042AD1
:1016700005D02A1DAA42AD416D4264191500E3014F
:1016800004D58021464AC90014406144454A91422C
:1016900000DD26E76207ED08640249051543240BC7
:1016A0004A0D10E75246324300D17FE0002E00D1B0
:1016B000DCE0300000F0D6FD02000B3A1D230100F3
:1016C0009B1A52460839DA408E40164352468A40E9
:1016D000009B3549181A03008C4663440020009390
:1016E000D3E6250005434AD0002C00D1B0E020000D
:1016F00000F0B8FD010002000B391D2310005B1A39
:101700003100350008388440D94085400C432648D4
:10171000831A0093002399469B4697E605002543CC
:1017200026D1082200930223002491469B468DE691
:101730005246009B324310D1154900268C46634423
:101740004946009302231943894602209DE65B46E1
:101750000197022B00D0ADE6C3E60D4A0320944664
:1017600063444A46009303231A43914652468CE64B
:101770000C2200930323050091469B4666E6042352
:10178000994600230093013300249B465EE6C04641
:10179000FF07000001FCFFFF38A40008FF03000062
:1017A000FFFFFFFEFE0700000DFCFFFF494601237F
:1017B000194389460026012067E60023802400257E
:1017C000434A019324037EE60120401A382800DDB5
:1017D00076E61F285BDD1F2223005242511ACB40C0
:1017E0001900202803D03B4A6244944025436A1ED6
:1017F00095412A000A4307210D000024154011429B
:101800005BD00F2100241140042953D0111D9142B7
:1018100092415242A4180A0023024BD5012200240F
:10182000002550E680231B031C4209D01E4207D12D
:1018300033431C0343461500240B254A019342E61B
:101840008022120314432403214A240B01973AE611
:1018500000F008FD01000200153120321C2900DCD7
:101860004BE7340008380025844050E700F0FAFCCC
:1018700003001A00153220301C2A00DC1EE75646F1
:10188000083B00229E4023E7009B9C46E6E6124967
:10189000220061442E008D408A40C640691E8D4161
:1018A00032432A43C4405307B6D00F2111400429C4
:1018B000ACD1B1E765076402240BD20815430022BE
:1018C00001E68022120314432403014A240BFAE5A3
:1018D000FF0700003E0400001E040000F8B5574654
:1018E0004E464546DE46E0B51E0017004A000B0393
:1018F000520D5B0A9046420F1A43CD0FCD4C310377
:10190000C300944670007A0F490AFF009A46B94610
:10191000400DF60F1143A04200D1B1E00122564024
:10192000B346B54200D188E04246121A002A00DCD4
:10193000AEE0002800D1C1E0BE48804500D151E1B1
:10194000802000040143382A00DD7BE11F2A00DDEE
:10195000EEE120203E00801A0C00D640D1408740A6
:1019600062468440521A781E874194463443274386
:10197000DC1BA3429B4162465B42D31A99464B460D
:101980001B0200D418E14B465802430A99464B46C5
:10199000002B00D137E1484600F064FC0100083913
:1019A0002023220048465B1ADA4088408C40434698
:1019B0001043884500DD36E1C91A4B1C1F2B00DDA2
:1019C000EAE020222600D21A01009440DE40D840EE
:1019D00000239140621E94418146984631430C4356
:1019E000630709D00F232340042B05D0231DA342F6
:1019F000A4416442A1441C004B461B0200D4DEE01B
:101A000041468C4B0131994200D1E7E04B468A4870
:101A1000E4080340180049055B07400223434A0DD0
:101A2000040B1205ED0722432A4318001100F0BCF5
:101A3000BB46B246A946A046F8BD4246121A002A45
:101A400052DD002800D19CE0A04500D1CAE08020F2
:101A500000040143382A00DD49E11F2A00DC97E138
:101A600010000E002038C640202A04D04020821AE0
:101A700091400F43B9464C46621E944134433AE1CB
:101A80000A003A4328D0B346B5422BD06B4A4244B1
:101A9000002A5DD042464446821A002C00D0F5E070
:101AA00065461D4300D19CE1551E012A00D1FBE192
:101AB000604CA24200D1BDE12A00F0E008003843AA
:101AC00000D1C3E0501E012A00D1A8E1594CA24226
:101AD00000D187E0020036E701225640B346B54206
:101AE00000D021E7554A4244002A00D1B5E04246E1
:101AF0004446821A002C00D138E14E4EB04200D14B
:101B0000DEE18026644636043443A446382A00DDEC
:101B100096E11F2A00DD24E22026B41AA24664467C
:101B20005646B440A1461C004E46D44026433400DD
:101B30005646B3405E1EB3411C436346D340C918AA
:101B4000E419BC42BF417F42B94680468944D8E08F
:101B500040463B4C0130204200D0B4E040460028D3
:101B600000D044E16046184300D190E108003843BA
:101B700000D0AAE16146DB0849070B436146CC0867
:101B800027E00800384361D0501E012A00D139E116
:101B9000A24227D002005DE702001F39CA401100AF
:101BA000202B03D04022D31A98400443631E9C414B
:101BB0000023994698460C43630700D012E74B4632
:101BC0004A46E4085B072343D408424619498A423F
:101BD0000ED024035205240B520D22E70A000024E4
:101BE00000231EE7DB086246520713436246D4080F
:101BF0001A00224300D1FCE1802212031443240383
:101C00000C4A240B0DE7200000F02CFB01001831DA
:101C10001F2900DCC4E60838844043462000002425
:101C2000884500DCC8E6044A5B1A104098468146A5
:101C3000D6E6C046FF070000FFFF7FFF01F8FFFF69
:101C4000FE0700000F437A1E974191E66146DB08CC
:101C500049070B436146CC08B8E74046D34C0130F6
:101C6000204200D0A2E04046002800D001E16046BA
:101C7000184300D15EE10800384300D05FE16146BF
:101C8000DB0849070B436146CC08A2E7C84DA842D0
:101C900000D1CFE0802564462D042C43A446382A89
:101CA00056DC1F2A00DDD1E020251E00AD1A644657
:101CB000AB40AC40D6405D1EAB4134432343644649
:101CC000D440091B49E06046DC1B461AA342804110
:101CD0004042814630004E46801B8146000276D449
:101CE0004B46234300D052E60024002571E73943D8
:101CF0000C00621E9441E4189C429B415B42634489
:101D000099464B461B0200D456E701239C46A84B3C
:101D1000E044984538D04B46A648012203401800BD
:101D2000630814401C43C3071C434308994657E605
:101D300010000E002038C640202A04D04020821A0D
:101D400091400F43B9464F467A1E974137430FE6FD
:101D500062461A4313005A1E9341FC1AA742BF4120
:101D60007F42CB1B99465D46804608E666461E4389
:101D700000D1BEE0561E012A00D109E18C4CA242DE
:101D800000D119E13200C1E642460024002348E6B2
:101D900020200C00801A3E0087408440D640781EE8
:101DA0008741D14034433C438C44A4E7804A90426D
:101DB00000D1E9E0DF199F429B4161445B42C918B1
:101DC000CC077F084B08994680463C43F4E6FC1A52
:101DD000A742BF4163467F42C91ACB1B99465D4665
:101DE000D5E5FF084B075D463B43CC08EEE662466F
:101DF0001A4300D082E00B003B431BD18024002516
:101E00002403F9E6DC199C429B41614489465B420C
:101E100099444B461B0244D401239846CCE6DC1B74
:101E20006246A3429B41511A5B42CB1A9946012359
:101E30009846A4E5FF084B075D463B43CC08D7E630
:101E400062461A431400631E9C4179E615006446FD
:101E5000203DEC40A046202A05D040256446AA1A21
:101E6000944023439A465446631E9C414346234371
:101E700073E762461A4323D00A003A4300D0A0E039
:101E80006246DB08520713436246D408B0E60B00F3
:101E90003B4300D128E7FF084B075D463B43CC0896
:101EA00097E60223984636E7FC1AA742BF416346ED
:101EB0007F42C91ACB1B994601235D4698465EE5D1
:101EC0004B07FF083B43CC0892E6DC1B6046A3426D
:101ED000B641401A7642801B8146000260D5FC1A4A
:101EE000A742BF4163467F42C91ACB1B99465D4654
:101EF00076E5FF084B073B43CC0867E60A00DB08A2
:101F00003A4300D16FE66246520713436246D40853
:101F100080221203144207D0C808104204D15D4643
:101F20000400FB0849070B435A0FDB00DB0852078C
:101F300013435DE64B07FF083B43CC0849E6DC1939
:101F40009C429B41614489465B4299444B461B023B
:101F500000D431E64A46174B1A4001239146984671
:101F60002AE616006446203EF440A046202A05D00A
:101F700040266446B21A944023439A465446631E50
:101F80009C4143461C43DBE502000024002348E556
:101F9000DC19BC42BF41614489467F42B94438E7FD
:101FA0004B46234300D19FE606E6C046FE070000ED
:101FB000FF070000FFFF7FFFFF084B073B43CC08F4
:101FC00016E66246DB08520713436246D4088022B5
:101FD0001203144207D0C808104204D15D46040021
:101FE000FB0849070B435A0FDB005207DB0813437A
:101FF000FEE50023014A1C0013E5C046FF07000070
:1020000070B505000C481C0316005B000A0349006C
:10201000120B490D240B5B0D814208D0064A0020AB
:10202000934203D120003043431E984170BD0120EC
:102030002A43FBD1F2E7C046FF0700000A0030B593
:10204000134C530009030500090B00205B0DD20F50
:10205000A34204DD0F48834202DD0F4BD01830BD90
:102060008020400301430D48C01A1F2808DD0C489A
:10207000C31AD9400B005842002AF0D11800EEE7ED
:10208000084CC540A446634499400B002B43F2E73B
:10209000FE0300001D040000FFFFFF7F330400006B
:1020A00013040000EDFBFFFF70B5002816D0C31726
:1020B000C5185D40C40F280000F0D4F8114A121A68
:1020C0000A2816DC03002E0015339E400B23181A35
:1020D000C54052052D032D0B530D03E000240023B2
:1020E000002500261B052B43E4072343300019007D
:1020F00070BD0B38854052052D0300262D0B530D66
:10210000F0E7C0461E04000010B5041E10D000F019
:10211000A9F80F4B1B1A0A2811DC0B222100121AF6
:10212000D14015300A035B058440120B5B0D01E0C2
:10213000002300221B0513432000190010BD2200BC
:102140000B3882405B0512030024120B5B0DF1E794
:102150001E04000002004B00F0B55B0D0C033D4E69
:10216000640A400F5F1CC90F0443D50037420AD0F0
:1021700039481E18FE2E16DDFF200024C00520431E
:10218000C9070843F0BD002B06D12C4326D00522F9
:102190009201540AD8B2F1E72543EDD08020C00364
:1021A0000443FF20EAE7002E1BDD9201531E9A41F3
:1021B000E4006D0F22432A43530748D00F231340F6
:1021C000042B00D004328023DB0413403FD0701C6A
:1021D000FE2ED1D09201540AC0B2CFE700200024D5
:1021E000CCE73200173222DB8020000420431E247B
:1021F000A41B1F2C1DDD02225242961B0200F2403E
:102200001600202C04D0154A944663449840054398
:102210002A00531E9A41324300265307CED1802410
:102220001300E404012023402242D3D1B0E700236D
:10223000ADE70B4A94462A00E24014002A006344AA
:102240009A409840551EAA4102432243E4E73300D6
:102250009EE7C046FE07000080FCFFFFA2FCFFFFD8
:1022600082FCFFFF1C2101231B04984201D3000CB8
:1022700010391B0A984201D3000A08391B099842F9
:1022800001D30009043902A2105C40187047C0460F
:10229000040302020101010100000000000000002F
:1022A00080B582B000AF80231B05180000F08AFBC8
:1022B00003007B607B68012B01D1012305E07B6873
:1022C000022B01D1022300E000231800BD4602B01A
:1022D00080BD000080B582B000AFFFF7E1FF0300D2
:1022E000012B17D1134B180000F09CF8114B18006C
:1022F00000F0F2F803007B607B68022B03D1022020
:1023000000F01AF80EE07B6801330BD1032000F0D7
:1023100013F807E0FFF7C4FF0300022B02D10320EC
:1023200000F00AF8022000F007F8C046BD4602B0EF
:1023300080BDC0464802002080B582B000AF0200D8
:10234000FB1D1A70FB1D1B78032B1AD01FDC022B00
:1023500011D01CDC002B02D0012B06D017E080230B
:102360001B05180000F058FB12E080231B05180025
:1023700000F052FB0CE080231B05180000F04CFB22
:1023800006E080231B05180000F046FB00E0C04675
:10239000C046BD4602B080BD80B584B000AF786055
:1023A0000A00BB1C1A800F23FB18FF221A700E2391
:1023B000FB18FF221A7019E07B685A1C7A601A78A1
:1023C0000E203B181B785340DBB2BB60134ABB683E
:1023D000D31819783B180F203A1812784A401A700F
:1023E0003B180F49BA688A1812781A70BB1C1B88F0
:1023F000BA1C591E1180002BDED10F23FB181B784D
:102400001B021AB20E23FB181B781BB213431BB21C
:102410009BB21800BD4604B080BDC04678A4000839
:1024200078A5000880B582B000AF78607A68A223F2
:102430009B000021D1547A68A9239B001349D150F5
:102440007A68A6239B001249D1507A68A7239B0083
:102450001049D1507A68A8239B000F49D1507B685E
:102460007833802292001100180000F0EDFB7B68A9
:102470000433180000F052FA7B6800225A707B681F
:1024800000221A70C046BD4602B080BDBF240008BD
:10249000D9240008352800089D24000880B582B0A2
:1024A00000AF78600A00FB1C1A707A68F91CA2233E
:1024B0009B000978D154C046BD4602B080BD80B5AE
:1024C00082B000AF78607A68A2239B00D35C1800CA
:1024D000BD4602B080BD000090B57F4CA54400AF62
:1024E0007860012383229200BA1813607B4C3B1959
:1024F00000221A707B6804333A191100180000F0AA
:1025000027FA031E00D181E03B191B78012B00D074
:102510007CE0734BFB1800221A807B68783318002C
:102520006F4C3B191B880822BA18D318190000F009
:10253000A8FB031E0CD06B4B842292009B18DB1966
:102540001B787E2B04D13B191A883B1901321A8063
:1025500063497B181B88013B624A84208000121863
:10256000D219D35C0A2BD8D17B181B88023B5D4A59
:102570001218D219D35C0D2B00D0CEE7C0467A6872
:10258000A7239B00D358564ABA18128808217918F5
:10259000786898470300012B2FD17B68524A9B5CD7
:1025A000022B17D02BDC002B2BD0012B00D026E0E8
:1025B0007A68A9239B00D3587A6810009847031EB5
:1025C00021D17A68A8239B00D3587A680121100092
:1025D000984718E07A68A9239B00D3587A681000BE
:1025E00098470300012B10D17A68A8239B00D35889
:1025F0007A6802211000984707E0C04606E0C0460E
:1026000004E0C04602E0C04600E0C0467A68A92364
:102610009B00D3587A68100098470300052B42D8D6
:102620009A00324BD3181B689F467B68180000F055
:102630005FF8031E08D17A68A8239B00D3587A68F4
:1026400005211000984731E07B68180000F050F831
:102650000300012B08D17A68A8239B00D3587A681D
:1026600003211000984721E07A68A8239B00D358E3
:102670007A6804211000984718E07A68A8239B0024
:10268000D3587A680121100098470FE00223832273
:102690009200BA18136009E001235B428322920082
:1026A000BA18136002E0C04600E0C04683239B00D6
:1026B000FB181B68012B05D17B681800FFF70CFF86
:1026C000030003E083239B00FB181B681800BD4632
:1026D00085239B009D4490BDECFDFFFF0902000097
:1026E0000A020000F8FDFFFF9202000078A6000831
:1026F000B0B586B000AF78607B684B4A94466344BF
:1027000014257C19180000F0E8FB030023807A6888
:10271000A5239B00D2587B191B881900100000F0DC
:1027200033FB03003B617B191A883B6911001800D9
:1027300000F0E1F90300FB60FB68002B01D10023EE
:102740006EE0FB681B79052B66D89A00374BD318CF
:102750001B689F46FB680233180000F0BEFB0300B5
:102760001A00334B1B68D218314B1A601623FB1822
:1027700000221A802CE0FB689B6816243A19128804
:1027800092009B18180000F0BBFB0300BB603B19D4
:102790001B889B001A00264B1B68D218244B1A601A
:1027A000234B1B68BA681100180000F018F9204B81
:1027B0001B68180000F006F90200BB68934201D0C4
:1027C00000232DE016217B181A887B1801321A800D
:1027D0001623FB181B88032BCDD920E000F015F938
:1027E00002231DE0FB689B68180000F076FB0300E5
:1027F0001C04FB680233180000F06FFB030022008A
:102800001A430B4B1A6000F0F9F8094B1B680521BD
:10281000180000F0C7F802E0C04600E0C0460123FF
:102820001800BD4606B0B0BD8E02000090A600089C
:10283000F004002090B587B000AFF860B960BB1D10
:102840001A80BB1D1B88023BBA68D3181978FA6836
:10285000A4239B00D154BB1D1B88013BBA68D3182D
:102860001978FA68A4239B00D154FA68A4239B002A
:10287000D45ABB1D1B88023B9AB2BB6811001800DA
:10288000FFF78AFD03009C4201D0002339E0BB68BA
:102890001978FA68A3239B00D154BB685978FB6868
:1028A0001A4A9954BB689978FB68194A9954BB68CD
:1028B000D978FB68174A99541623FB1800221A800E
:1028C00011E016217B181B8804331A00BB689A1884
:1028D00008007B181B8811780F4AD1543B181A88BE
:1028E0003B1801321A80FB68094A9B5A1622BA1813
:1028F00012889A42E5D3FA68A5239B000649D15075
:1029000001231800BD4607B090BDC04692020000EA
:102910008E0200008F0200001402002080B582B0F9
:1029200000AF78607B6864220021180003F022F871
:102930007B680022DA667B6800229A667B68002248
:102940001A677B6864225A66C046BD4602B080BDE5
:1029500080B582B000AF786039607B68DA6E7B68E2
:102960009B6E9A4219D07B689B6E7A68D25C3B68FA
:102970001A707B689B6E5A1C7B685B6E1900100096
:10298000FDF764FC0B001A007B689A667B681B6F7E
:102990005A1E7B681A67012300E000231800BD4619
:1029A00002B080BD80B582B000AF786039603A680F
:1029B0007B681100180000F03BF803001800BD46CA
:1029C00002B080BD80B582B000AF78607B6818002F
:1029D00000F04DF803001800BD4602B080BD80B580
:1029E00082B000AF786039603A687B6811001800E7
:1029F00000F047F8C046BD4602B080BD80B500AFCC
:102A000000F050F8C046BD4680BD80B500AF00F074
:102A100050F8C046BD4680BD80B582B000AF78603A
:102A20007B68180000F04CF8C046BD4602B080BD7F
:102A300080B586B000AF786039600C217B187A6869
:102A40005A607B183A689A607B1800221A60082343
:102A5000FA187B181100180001F050F8031E01D17C
:102A6000012300E000231800BD4606B080BD80B5FC
:102A700082B000AF78607B681B681800BD4602B06A
:102A800080BD80B582B000AF7860396039680A00D7
:102A900000210B007968022000F0DAFEC046BD4636
:102AA00002B080BD80B500AF00F068FFC046BD46F3
:102AB00080BD80B500AF00F087FFC046BD4680BD39
:102AC00080B586B000AF786001F052FA00F0EEFCFD
:102AD0007B681B68FB60FB6883F30888C0467B68E3
:102AE00004331B687B617B693B613B699847C04647
:102AF000BD4606B080BD90B585B000AF78600A00D5
:102B0000BB1C1A80BB1C1B88180002F01FFF0300AF
:102B1000BB607B681B783A2B57D17B681A78BB68FF
:102B20001A707B685A78BB685A707B689A78BB6861
:102B30009A707B68DA78BB68DA707B681A79BB6850
:102B40001A71BB685B78180002F000FF03001A00DE
:102B5000BB689A600E23FB1800221A8012E00E2038
:102B60003B181B8805331A007B689A18BB68996864
:102B70003B181B88CB1812781A703B181A883B1820
:102B800001321A80BB685B789BB20E22BA18128899
:102B90009A42E4D3BB685B7805331A007B689B18C4
:102BA0001A78BB681A73BB681C7BBB1C1A887B68CD
:102BB0001100180000F00EF803009C4205D0BB681D
:102BC000180002F0CDFE002300E0BB681800BD46EF
:102BD00005B090BD80B584B000AF78600A00BB1C22
:102BE0001A800F23FB1800221A700C23FB180122F5
:102BF0001A8010E00C203B181B887A68D3181978CB
:102C00000F22BB18BA1812788A181A703B181A8843
:102C10003B1801321A800C23FB181A88BB1C1B8836
:102C2000013B9A42E6DB0F23FB181B78002B01D1F6
:102C3000022200E001220F217B181A707B181B78FA
:102C40001800BD4604B080BD80B582B000AF78608A
:102C500039607A6883239B000021D1507A688223EF
:102C60009B000021D1507A6881239B000021D15024
:102C70007A6880239B003968D150C046BD4602B0B7
:102C800080BD80B582B000AF786039607A688223F9
:102C90009B00D258796881239B00CB589A4224D05C
:102CA0007A6881239B00D3587A68D25C3B681A709B
:102CB0007A6881239B00D358581C7A6880239B0034
:102CC000D3581900FDF7C2FA0B0019007A68812366
:102CD0009B00D1507A6883239B00D358591E7A6891
:102CE00083239B00D150012300E000231800BD4640
:102CF00002B080BD80B584B000AF0200FB1D1A7029
:102D00000C23FB1800221A802FE00C217B181B8853
:102D10001C4AD35CFA1D12789A4220D17B181B887A
:102D2000092B06D80F23FB18FA1D1278303A1A70B7
:102D300015E00C22BB181B88092B0AD9BB181B886D
:102D40000F2B06D80F23FB18FA1D1278373A1A708A
:102D500005E00F23FB18FA1D1278573A1A700C2160
:102D60007B181A887B1801321A800C23FB181B88E9
:102D7000152BCAD90F23FB181B781800BD4604B0C9
:102D800080BDC04600000020F0B587B000AF78607D
:102D90000A00BB1C1A80BB1C1B885B089BB201335A
:102DA000180002F0D3FD0300FB60BB1C1B8801224E
:102DB00013409BB2002B46D01623FB1800221A802A
:102DC0001423FB1800221A8034E014257B191B8879
:102DD0007A68D3181B780926BC191800FFF78AFFF8
:102DE000030023707B191B8801337A68D3181B7882
:102DF0000822BC181800FFF77DFF03002370BB19E1
:102E00001B781B015AB20823FB181B785BB21343D3
:102E100059B216203B181B88FA68D318CAB21A7028
:102E20003B181A883B1801321A807B197A191288CC
:102E300002321A801423FB181A88BB1C1B88013B22
:102E40009A42C2DB44E01223FB1800221A801023AE
:102E5000FB1800221A8034E010257B191B887A6841
:102E6000D3181B780B26BC191800FFF743FF03008B
:102E700023707B191B8801337A68D3181B780A22C8
:102E8000BC181800FFF736FF03002370BB191B782E
:102E90001B015AB20A23FB181B785BB2134359B2C9
:102EA00012203B181B88FA68D318CAB21A703B1854
:102EB0001A883B1801321A807B197A19128802325B
:102EC0001A801023FA18BB1C12881B889A42C3D39D
:102ED000FB681800BD4607B0F0BD80B582B000AFFA
:102EE00078607B681B781B021AB27B6801331B7801
:102EF0001BB213431BB29BB21800BD4602B080BD8B
:102F000080B584B000AF78600023FB600A23FB1813
:102F100000221A8013E00A217B181B887A68D318D4
:102F20001B781A007B181B88DB009A401300FA6894
:102F30001343FB607B181A887B1801321A800A231E
:102F4000FB181B88032BE6D9FB681800BD4604B0AC
:102F500080BD80B500AF00F095FA00F007F800F0F2
:102F600095F800F063F8FFF7B5F9FEE790B597B074
:102F700000AF28243B19180030231A00002102F06A
:102F8000F9FC1823FB18180010231A00002102F086
:102F9000F1FC3B1D180014231A00002102F0EAFC8A
:102FA00021007B1801221A607B1801225A607B18CD
:102FB00002221A627B18802252025A627B188022F7
:102FC00052039A627B180022DA627B18180001F023
:102FD00055F8031E01D000F0C3F818217B18072212
:102FE0001A607B1802225A607B1800229A607B18B4
:102FF0000022DA607B180121180001F059FB031E42
:1030000001D000F0ADF83B1D01221A603B1D0022EB
:103010009A603B1D180001F09DFC031E01D000F0DA
:103020009FF8C046BD4617B090BD000080B500AF08
:10303000144B154A1A60134BE12252025A60114B8D
:1030400000229A600F4B0022DA600E4B00221A61B8
:103050000C4B0C225A610B4B00229A61094B002247
:10306000DA61084B00221A62064B00225A62054BB5
:10307000180001F04DFD031E01D000F071F8C046AC
:10308000BD4680BDF40400200038014090B589B0F1
:1030900000AF0C243B19180014231A00002102F081
:1030A00069FC2D4B5A692C4B8021C9030A435A6194
:1030B000294B5A698023DB031340BB60BB68264B56
:1030C0005A69254B802189020A435A61224B5A6969
:1030D00080239B0213407B607B681F4B5A691E4B09
:1030E000802109030A435A611B4B5A6980231B0341
:1030F00013403B603B68C0239B0018480022190026
:1031000000F018FF3B1901221A603B19902252036C
:103110005A603B1900229A603A199023DB0511008E
:10312000180000F097FD21007B18C02292001A6061
:103130007B1801225A607B1800229A607B180022BB
:10314000DA607B18054A1900100000F083FDC046C4
:10315000BD4609B090BDC0460010024000080048BE
:1031600080B500AF72B6C046FEE7000080B582B001
:1031700000AF0F4B9A690E4B01210A439A610C4B29
:103180009B69012213407B607B68094BDA69084B1D
:10319000802149050A43DA61054BDA6980235B0522
:1031A00013403B603B68C046BD4602B080BDC04690
:1031B0000010024090B58BB000AF786014243B192A
:1031C000180014231A00002102F0D4FB7B681B684E
:1031D000214A93423BD1214B9A69204B8021C9015E
:1031E0000A439A611D4B9A698023DB0113403B61BE
:1031F0003B691A4B5A69194B802189020A435A616B
:10320000164B5A6980239B021340FB60FB683B19F5
:10321000C022D2001A6021007B1802225A607B185B
:1032200000229A607B180322DA607B1801221A615F
:103230007A189023DB051100180000F00BFD002226
:1032400000211B2000F054FA1B2000F066FAC04653
:10325000BD460BB090BDC046003801400010024092
:1032600080B500AFFEE780B500AFFEE780B500AFE8
:10327000C046BD4680BD80B500AFC046BD4680BDDE
:1032800080B500AF00F06CF9C046BD4680BD0000BF
:1032900080B500AF034B180001F08EFCC046BD4660
:1032A00080BDC046F404002080B500AF01231800A3
:1032B000BD4680BD80B582B000AF7860396002F055
:1032C0001BFB030016221A6001235B421800BD4657
:1032D00002B080BD80B582B000AF786001235A4251
:1032E0007B6811001800FFF7E5FFFEE780B586B0A8
:1032F00000AFF860B9607A6000237B610AE000E00B
:1033000000BF0100BB685A1CBA60CAB21A707B6960
:1033100001337B617A697B689A42F0DB7B68180035
:10332000BD4606B080BD80B586B000AFF860B9601C
:103330007A6000237B6109E0BB685A1CBA601B7885
:10334000180000E000BF7B6901337B617A697B680C
:103350009A42F1DB7B681800BD4606B080BD80B59F
:1033600082B000AF786001235B421800BD4602B016
:1033700080BD80B582B000AF786039603B68802244
:1033800092015A6000231800BD4602B080BD80B58E
:1033900082B000AF786001231800BD4602B080BD46
:1033A00080B584B000AFF860B9607A60002318007F
:1033B000BD4604B080BD000080B586B000AF786027
:1033C000144A154BD31A7B617B693B61134B1B6815
:1033D000002B02D1114B124A1A60104B1A687B68FD
:1033E000D3183A699A4207D202F086FA03000C22F7
:1033F0001A6001235B4209E0084B1B68FB60074B26
:103400001A687B68D218054B1A60FB681800BD4625
:1034100006B080BD002000200004000078050020D8
:10342000B005002080B500AFC046BD4680BD00009D
:103430000D4885460D480E490E4A002302E0D45837
:10344000C4500433C4188C42F9D30B4A0B4C0023EC
:1034500001E013600432A242FBD3FFF7E3FF02F066
:1034600051FAFFF776FDFEE7002000200000002063
:10347000F801002074AB0008F8010020B00500201E
:10348000FEE7000080B500AF074B1A68064B10211D
:103490000A431A60002000F02FF8FFF767FE0023B0
:1034A0001800BD4680BDC0460020024080B500AF78
:1034B0000D4B012252421A610B4B00221A610A4B3A
:1034C00001225242DA60084B0022DA60064B0122E8
:1034D00052429A62044B00229A6200F007F80023DD
:1034E0001800BD4680BDC0460010024080B500AF48
:1034F000C046BD4680BD000090B583B000AF786087
:10350000144B1C68144B1B781900FA239800FCF725
:1035100017FE030019002000FCF712FE030018003C
:1035200000F00BF9031E01D001230FE07B68032B91
:103530000BD8796801235B420022180000F0D8F80C
:10354000064B7A681A60002300E001231800BD468C
:1035500003B090BD18000020200000201C000020B7
:1035600080B500AF054B1B781A00054B1B68D218BD
:10357000034B1A60C046BD4680BDC04620000020F7
:103580007C05002080B500AF024B1B681800BD46CB
:1035900080BDC0467C05002080B582B000AF02002F
:1035A000FB1D1A70FB1D1B787F2B09D8FB1D1B7898
:1035B0001A001F231A40044B012191400A001A608F
:1035C000C046BD4602B080BD00E100E090B583B0CA
:1035D00000AF02003960FB1D1A70FB1D1B787F2BAA
:1035E00028D82F4AFB1D1B785BB29B08C0339B0079
:1035F0009B58FA1D1278110003220A40D200FF21C5
:1036000091400A00D2431A4011003B689B01FF22FF
:103610001A40FB1D1B78180003230340DB009A406F
:103620001F48FB1D1B785BB29B080A43C0339B00FD
:103630001A5031E01B4AFB1D1B7819000F230B4069
:10364000083B9B0806339B00D31804331B68FA1D04
:103650001278110003220A40D200FF2191400A0093
:10366000D2431A4011003B689B01FF221A40FB1D08
:103670001B78180003230340DB009A400948FB1D18
:103680001B781C000F232340083B9B080A4306338A
:103690009B00C31804331A60C046BD4603B090BDFA
:1036A00000E100E000ED00E080B582B000AF78609E
:1036B0007B685A1E80235B049A4201D3012310E0E9
:1036C0000A4B7A68013A5A6001235B4203211800D1
:1036D000FFF77CFF054B00229A60044B07221A601B
:1036E00000231800BD4602B080BDC04610E000E0D7
:1036F00080B584B000AFB9607A600F217B18021CDE
:103700001A70BA687B181B785BB211001800FFF7BB
:103710005DFFC046BD4604B080BD80B582B000AF3D
:103720000200FB1D1A70FB1D1B785BB21800FFF72F
:1037300033FFC046BD4602B080BD80B582B000AF49
:1037400078607B681800FFF7AFFF03001800BD46E4
:1037500002B080BD80B582B000AF78607B68212266
:103760009B5CDBB2022B08D07B6804229A637B68E7
:10377000202200219954012320E07B681B681A68ED
:103780007B681B680E218A431A607B681B681A6875
:103790007B681B6801218A431A607B681A6C7B680E
:1037A000DB6B012191400A005A607B6821220121D4
:1037B00099547B6820220021995400231800BD46AB
:1037C00002B080BD80B584B000AF78600F217B1857
:1037D00000221A707B6821229B5CDBB2022B06D090
:1037E0007B6804229A637B1801221A7028E07B68A8
:1037F0001B681A687B681B680E218A431A607B6805
:103800001B681A687B681B6801218A431A607B6801
:103810001A6C7B68DB6B012191400A005A607B685F
:103820002122012199547B682022002199547B6830
:103830005B6B002B04D07B685B6B7A681000984749
:103840000F23FB181B781800BD4604B080BD000094
:10385000F0B587B000AFF860B9603A607B601723BD
:10386000FB1801221A701623FB1800221A70152368
:10387000FB1800221A703E4B1B7E012B01D1022344
:1038800072E03B4B01221A761723FE18394B1800C1
:1038900000F0C4F8030033701723FB181B78002BCB
:1038A0005CD1FB68012B04D11523FB1801221A708F
:1038B0000BE0FB68022B04D11523FB1802221A70BF
:1038C00003E01523FB1804221A701623FB180022AC
:1038D0001A7039E016217B181B785A00BB68D01883
:1038E0007B181B781B011A00203A002A03DB796839
:1038F000D1400C0008E02022D21A796891400A00D9
:103900003968D9400C0014437A68DA401500A3B234
:10391000190000F067F81723FE18164B180000F086
:103920007DF803003370144B1A69134B01218A434D
:103930001A611723FB181B78002B0ED116217B1858
:103940001A787B1801321A701623FA181523FB18FF
:1039500012781B789A42BDD300E0C046044B002287
:103960001A761723FB181B781800BD4607B0F0BD68
:103970008005002050C300000020024080B582B0C6
:1039800000AFFB1D00221A700C4B1B6980221340F4
:103990000DD00A4B0A4A5A60084B0A4A5A60074B34
:1039A0001B698022134002D0FB1D01221A70FB1DEF
:1039B0001B781800BD4602B080BDC0460020024002
:1039C00023016745AB89EFCD80B500AF044B1A6981
:1039D000034B80210A431A6100231800BD4680BDB5
:1039E0000020024080B582B000AF78600A00BB1CA6
:1039F0001A80084B0022DA61074B1A69064B012135
:103A00000A431A617B68BA1C12881A80C046BD46F8
:103A100002B080BD800500200020024080B584B047
:103A200000AF7860FFF7AEFD0300FB600FE07B683E
:103A300001330CD07B68002B07D0FFF7A3FD0200F9
:103A4000FB68D31A7A689A4201D203231FE0124B13
:103A5000DB6801221340012BE9D00F4BDB682022E9
:103A60001340202B02D10C4B2022DA600A4BDB687A
:103A700010221340102B05D0074BDB6804221340A3
:103A8000042B03D100F00AF8012300E00023180002
:103A9000BD4604B080BDC0460020024080B582B063
:103AA00000AF00237B60134BDB6810221340102B08
:103AB00009D1114BDB6902221A430F4BDA617B6893
:103AC000102213437B600B4BDB6804221340042B52
:103AD00009D1094BDB6901221A43074BDA617B6884
:103AE000042213437B60034B7A68DA60C046BD460C
:103AF00002B080BD0020024080050020B0B584B037
:103B000000AF786039600F23FB1801221A70002380
:103B1000BB60324B1B7E012B01D102235AE02F4B9D
:103B200001221A767B681B68012B16D12C4B1800DA
:103B3000FFF774FF031E47D100F056F80F23FC185F
:103B4000274B1800FFF76AFF03002370254B1A6903
:103B5000244B04218A431A6136E0214B1800FFF7F9
:103B60005DFF031E30D13B68012252421A607B6820
:103B70005B68BB601FE0BB68180000F04DF80F25C4
:103B80007C19174B1800FFF749FF03002370154BF2
:103B90001A69144B02218A431A617B191B78002B86
:103BA00003D03B68BA681A600EE0BB688022D2007E
:103BB00094466344BB607B689B689A027B685B6841
:103BC000D318BA689A42D6D3044B00221A760F2330
:103BD000FB181B781800BD4604B0B0BD800500205E
:103BE00050C300000020024080B500AF084B002207
:103BF000DA61084B1A69074B04210A431A61054B25
:103C00001A69044B40210A431A61C046BD4680BD73
:103C1000800500200020024080B582B000AF7860AF
:103C20000A4B0022DA610A4B1A69094B02210A4346
:103C30001A61074B7A685A61054B1A69044B402197
:103C40000A431A61C046BD4602B080BD800500200F
:103C50000020024080B586B000AF78603960002354
:103C60007B614FE13B681B6801217A6991400A0042
:103C70001340FB60FB68002B00D140E13B685B68B0
:103C800003221340012B05D03B685B6803221340DD
:103C9000022B30D17B689B683B617B695B00032210
:103CA0009A401300DA433B6913403B613B68DA6892
:103CB0007B695B009A4013003A6913433B617B6860
:103CC0003A699A607B685B683B6101227B699A4034
:103CD0001300DA433B6913403B613B685B681B0997
:103CE00001221A407B699A4013003A6913433B61F1
:103CF0007B683A695A603B685B6803221340032B78
:103D000017D07B68DB683B617B695B0003229A40CC
:103D10001300DA433B6913403B613B689A687B6957
:103D20005B009A4013003A6913433B617B683A6930
:103D3000DA603B685B6803221340022B23D17B6966
:103D4000DA087B6808329200D3583B617B6907220E
:103D500013409B000F229A401300DA433B69134043
:103D60003B613B681A697B6907210B409B009A40C5
:103D700013003A6913433B617B69DA087B680832B8
:103D800092003969D1507B681B683B617B695B009D
:103D900003229A401300DA433B6913403B613B68BE
:103DA0005B6803221A407B695B009A4013003A6902
:103DB00013433B617B683A691A603B685A68C023C9
:103DC0009B02134000D19AE0544B9A69534B012156
:103DD0000A439A61514B9B6901221340BB60BB6847
:103DE0004F4A7B699B0802339B009B583B617B6970
:103DF000032213409B000F229A401300DA433B69D1
:103E000013403B617A689023DB059A4213D07B68AC
:103E1000444A93420DD07B68434A934207D07B6863
:103E2000424A934201D1032306E0052304E0022322
:103E300002E0012300E000237A6903210A40920096
:103E400093403A6913433B6135497B699B080233D0
:103E50009B003A695A50364B1B683B61FB68DA435A
:103E60003B6913403B613B685A6880235B02134007
:103E700003D03A69FB6813433B612D4B3A691A60E2
:103E80002B4B5B683B61FB68DA433B6913403B614A
:103E90003B685A6880239B02134003D03A69FB6851
:103EA00013433B61224B3A695A60214B9B683B614B
:103EB000FB68DA433B6913403B613B685A688023E7
:103EC0005B03134003D03A69FB6813433B61184B13
:103ED0003A699A60164BDB683B61FB68DA433B69E1
:103EE00013403B613B685A6880239B03134003D017
:103EF0003A69FB6813433B610D4B3A69DA607B69B1
:103F000001337B613B681A687B69DA40131E00D07D
:103F1000A8E6C046C046BD4606B080BD00100240BF
:103F2000000001400004004800080048000C004860
:103F30000004014080B582B000AF78600800110035
:103F4000BB1C021C1A807B1C0A1C1A707B1C1B7871
:103F5000002B04D0BB1C1A887B689A6103E0BB1C51
:103F60001A887B689A62C046BD4602B080BD0000D8
:103F700080B582B000AFFFF705FB03007B60374BD5
:103F80001A68364B81210A431A6008E0FFF7FAFAF3
:103F900002007B68D31A022B01D903235AE02F4B6E
:103FA0001B6802221340F1D02C4B5A682B4B2C4932
:103FB0000A405A6009E0FFF7E5FA02007B68D31A6D
:103FC000284A934201D9032344E0244B5B680C2226
:103FD0001340F0D1244B254A1A60254B1B6818006A
:103FE000FFF78AFA031E01D0012333E01B4B1A6846
:103FF0001A4B20490A401A60184B1A68174B1E4981
:104000000A401A60FFF7BEFA03007B6008E0FFF782
:10401000B9FA02007B68D31A022B01D9032319E0F5
:104020000E4B1A6880239B041340F0D10B4B0022E7
:104030005A600A4B0022DA62084B00221A63074BCF
:1040400000229A60054B5A6A044B802149040A43B6
:104050005A6200231800BD4602B080BD0010024025
:104060000CF8FFF0881300001800002000127A00FE
:104070001C000020FFFFF6FEFFFFFBFF80B588B0AD
:1040800000AF78607B68002B01D1012301E37B68DE
:104090001B680122134000D18DE0C34B5B680C22EA
:1040A0001340042B0ED0C04B5B680C221340082B2E
:1040B00016D1BD4B5A6880235B021A4080235B02F5
:1040C0009A420DD1B84B1A6880239B02134000D14D
:1040D00070E07B685B68002B00D06BE00123D8E2C6
:1040E0007B685B68012B07D1AF4B1A68AE4B802110
:1040F00049020A431A602FE07B685B68002B0CD1F1
:10410000A94B1A68A84BA9490A401A60A64B1A681D
:10411000A54BA7490A401A601EE07B685B68052B27
:104120000ED1A14B1A68A04B8021C9020A431A6024
:104130009D4B1A689C4B802149020A431A600BE090
:10414000994B1A68984B99490A401A60964B1A681D
:10415000954B97490A401A607B685B68002B14D026
:10416000FFF710FA0300BB6108E0FFF70BFA02004B
:10417000BB69D31A642B01D903238AE28A4B1A68DC
:1041800080239B021340F0D015E0FFF7FBF90300FA
:10419000BB6108E0FFF7F6F90200BB69D31A642B94
:1041A00001D9032375E2804B1A6880239B021340D8
:1041B000F0D100E0C0467B681B680222134000D1AA
:1041C00069E0794B5B680C2213400BD0764B5B683F
:1041D0000C221340082B1CD1734B5A6880235B02BE
:1041E000134016D1704B1B680222134005D07B6828
:1041F000DB68012B01D001234BE26B4B1B68F822DB
:10420000934319007B681B69DA00674B0A431A6005
:1042100041E07B68DB68002B24D0634B1A68624B5B
:1042200001210A431A60FFF7ADF90300BB6108E002
:10423000FFF7A8F90200BB69D31A022B01D90323A7
:1042400027E2594B1B6802221340F1D0564B1B68E2
:10425000F822934319007B681B69DA00524B0A432A
:104260001A6018E0504B1A684F4B01218A431A60BC
:10427000FFF788F90300BB6108E0FFF783F902004C
:10428000BB69D31A022B01D9032302E2464B1B68F8
:1042900002221340F1D17B681B680822134036D0FC
:1042A0007B68DB69002B19D03F4B5A6A3E4B0121DA
:1042B0000A435A62FFF766F90300BB6108E0FFF7A3
:1042C00061F90200BB69D31A022B01D90323E0E193
:1042D000354B5B6A02221340F1D018E0324B5A6A28
:1042E000314B01218A435A62FFF74CF90300BB614D
:1042F00008E0FFF747F90200BB69D31A022B01D986
:104300000323C6E1284B5B6A02221340F1D17B688C
:104310001B680422134000D1B4E01F203B18002288
:104320001A70214BDA6980235B05134010D11E4BB4
:10433000DA691D4B802149050A43DA611A4BDA69B3
:1043400080235B051340FB60FB683B1801221A7059
:10435000184B1A6880235B0013401AD1154B1A685A
:10436000144B802149000A431A60FFF70BF9030040
:10437000BB6108E0FFF706F90200BB69D31A642BA2
:1043800001D9032385E10B4B1A6880235B0013409E
:10439000F0D07B689B68012B0ED1034B1A6A024B4D
:1043A00001210A431A6235E000100240FFFFFEFFC0
:1043B000FFFFFBFF007000407B689B68002B0CD167
:1043C000B64B1A6AB54B01218A431A62B34B1A6A7B
:1043D000B24B04218A431A621CE07B689B68052B60
:1043E0000CD1AE4B1A6AAD4B04210A431A62AB4B97
:1043F0001A6AAA4B01210A431A620BE0A74B1A6AF8
:10440000A64B01218A431A62A44B1A6AA34B0421CA
:104410008A431A627B689B68002B14D0FFF7B2F8BE
:104420000300BB6109E0FFF7ADF80200BB69D31AD6
:104430009B4A934201D903232BE1984B1B6A02222A
:104440001340F0D013E0FFF79DF80300BB6109E0D3
:10445000FFF798F80200BB69D31A914A934201D939
:10446000032316E18D4B1B6A02221340F0D11F2358
:10447000FB181B78012B05D1884BDA69874B8949DA
:104480000A40DA617B681B681022134063D07B68A6
:104490005B69012B2AD1814B5A6B804B04210A4363
:1044A0005A637E4B5A6B7D4B01210A435A63FFF7D7
:1044B00069F80300BB6108E0FFF764F80200BB691C
:1044C000D31A022B01D90323E3E0744B5B6B022266
:1044D0001340F1D0714B5B6BF822934319007B685A
:1044E0009B69DA006D4B0A435A6334E07B685B6971
:1044F000053311D1694B5A6B684B04218A435A63C7
:10450000664B5B6BF822934319007B689B69DA006A
:10451000624B0A435A631EE0604B5A6B5F4B0421A7
:104520000A435A635D4B5A6B5C4B01218A435A63C1
:10453000FFF728F80300BB6108E0FFF723F802004B
:10454000BB69D31A022B01D90323A2E0534B5B6B47
:1045500002221340F1D17B681B6A002B00D197E047
:104560004E4B5B680C221340082B00D16BE07B683C
:104570001B6A022B4CD1494B1A68484B4A490A40E6
:104580001A60FEF7FFFF0300BB6108E0FEF7FAFFC9
:104590000200BB69D31A022B01D9032379E03F4BF8
:1045A0001A6880239B041340F0D13C4BDB6A0F2236
:1045B000934319007B68DA6A384B0A43DA62374B57
:1045C0005B683A4A134019007B689A6A7B685B6AA9
:1045D0001A43324B0A435A60304B1A682F4B8021E2
:1045E00049040A431A60FEF7CDFF0300BB6108E0EF
:1045F000FEF7C8FF0200BB69D31A022B01D90323BF
:1046000047E0264B1A6880239B041340F0D03FE01C
:10461000224B1A68214B24490A401A60FEF7B2FF68
:104620000300BB6108E0FEF7ADFF0200BB69D31ACF
:10463000022B01D903232CE0184B1A6880239B041A
:104640001340F0D124E07B681B6A012B01D10123C8
:104650001FE0124B5B687B61104BDB6A3B617A6940
:1046600080235B021A407B685B6A9A420ED13B69E9
:104670000F221A407B68DB6A9A4207D17A69F023DD
:104680009B031A407B689B6A9A4201D0012300E099
:1046900000231800BD4608B080BDC046001002408F
:1046A00088130000FFFFFFEFFFFFFFFEFFFFC2FFC9
:1046B00080B584B000AF786039607B68002B01D191
:1046C0000123B3E05B4B1B68012213403A689A4216
:1046D00011D9584B1B68012293431900554B3A6876
:1046E0000A431A60534B1B68012213403A689A42EE
:1046F00001D001239AE07B681B680222134015D089
:104700007B681B680422134006D04B4B5A684A4B07
:10471000E021C9000A435A60474B5B68F02293438B
:1047200019007B689A68444B0A435A607B681B688F
:104730000122134040D07B685B68012B07D13E4BC0
:104740001A6880239B02134014D101236EE07B681A
:104750005B68022B07D1384B1A6880239B041340F7
:1047600008D1012362E0344B1B680222134001D1BF
:1047700001235BE0304B5B680322934319007B68A5
:104780005A682D4B0A435A60FEF7FCFE0300FB609B
:1047900009E0FEF7F7FE0200FB68D31A274A9342AE
:1047A00001D9032342E0244B5B680C221A407B684A
:1047B0005B689B009A42ECD11E4B1B6801221340A0
:1047C0003A689A4211D21B4B1B680122934319008D
:1047D000184B3A680A431A60164B1B6801221340B3
:1047E0003A689A4201D0012320E07B681B680422CA
:1047F000134009D0104B5B68114A134019007B68C5
:10480000DA680D4B0A435A6000F020F801000A4BA9
:104810005B681B090F2213400A4AD35C0A00DA4086
:10482000094B1A600020FEF767FE00231800BD4602
:1048300004B080BD00200240001002408813000038
:10484000FFF8FFFFA8A600081800002090B58FB061
:1048500000AF1423FB182B4A13CA13C312681A6043
:104860003B1D294A13CA13C312681A600023FB6256
:104870000023BB6200237B6300237B6200233B6336
:10488000224B5B68FB62FB6A0C221340042B02D0B4
:10489000082B03D02DE01E4B3B632DE0FB6A9B0CE5
:1048A0000F2213401422BA18D35C7B62174BDB6AC9
:1048B0000F2213403A1DD35CBB62FA6A80235B026D
:1048C000134009D0B96A1248FBF73AFC03001A00FA
:1048D0007B6A53437B6309E0796A0A005201521AEA
:1048E00093019B1ADB005B181B027B637B6B3B63B2
:1048F00002E0074B3B63C0463B6B1800BD460FB060
:1049000090BDC046D8A30008E8A3000800100240EC
:1049100000127A0080B500AF024B1B681800BD463C
:1049200080BDC0461800002080B500AFFFF7F2FF41
:104930000100064B5B681B0A07221340044AD35C44
:10494000D9400B001800BD4680BDC0460010024093
:10495000B8A6000880B586B000AF786000233B6140
:104960000023FB607B681A6880235B02134000D140
:104970008EE017203B1800221A705F4BDA69802303
:104980005B05134010D15C4BDA695B4B8021490514
:104990000A43DA61584BDA6980235B051340BB6038
:1049A000BB683B1801221A70544B1A6880235B00C5
:1049B00013401AD1514B1A68504B802149000A43C9
:1049C0001A60FEF7DFFD03003B6108E0FEF7DAFD49
:1049D00002003B69D31A642B01D9032387E0474BBC
:1049E0001A6880235B001340F0D0434B1A6AC0233F
:1049F0009B001340FB60FB68002B34D07B685A6837
:104A0000C0239B001340FA689A422CD03A4B1B6A91
:104A10003B4A1340FB60384B1A6A374B80214902EE
:104A20000A431A62344B1A6A334B36490A401A62F7
:104A3000314BFA681A62FB680122134013D0FEF76B
:104A4000A1FD03003B6109E0FEF79CFD02003B690C
:104A5000D31A2D4A934201D9032348E0264B1B6AFF
:104A600002221340F0D0244B1B6A254A1340190040
:104A70007B685A68204B0A431A621723FB181B787D
:104A8000012B05D11C4BDA691B4B20490A40DA6126
:104A90007B681B680122134009D0174B1B6B032254
:104AA000934319007B689A68134B0A431A637B6827
:104AB0001B682022134009D00F4B1B6B102293431D
:104AC00019007B68DA680C4B0A431A637B681A6822
:104AD0008023DB00134009D0074B1B6B402293431C
:104AE00019007B681A69044B0A431A6300231800F3
:104AF000BD4606B080BDC0460010024000700040B8
:104B0000FFFCFFFFFFFFFEFF88130000FFFFFFEF2A
:104B100080B582B000AF78607B68002B01D10123A3
:104B200044E07B689B6F002B07D17B6874220021D7
:104B300099547B681800FEF73DFB7B6824229A6736
:104B40007B681B681A687B681B6801218A431A60AE
:104B50007B68180000F024FB0300012B01D1012326
:104B600024E07B685B6A002B03D07B68180000F0B0
:104B700057FC7B681B685A687B681B680D490A40B4
:104B80005A607B681B689A687B681B682A218A4385
:104B90009A607B681B681A687B681B6801210A435E
:104BA0001A607B68180000F0EFFC03001800BD4697
:104BB00002B080BDFFB7FFFF90B5ABB000AF78602B
:104BC0007B681B68DB69A422B9180B607B681B68D3
:104BD0001B68A02039180B607B681B689B689C21B0
:104BE00079180B601100BB181B68994A1340982272
:104BF000BC182360BB181B68002B14D17B181B68E2
:104C0000202213400FD03B181B68202213400AD0EB
:104C10007B685B6E002B00D196E27B685B6E7A68E6
:104C20001000984790E29823FB181B68002B00D1D6
:104C300014E19C23FB181B680122134006D1A0231A
:104C4000FB181B68834A134000D107E1A423FB181B
:104C50001B680122134012D0A023FB181A6880237E
:104C60005B0013400BD07B681B6801221A627B68D3
:104C700080229B5801221A437B6880215A50A4232A
:104C8000FB181B680222134011D09C23FB181B68E1
:104C9000012213400BD07B681B6802221A627B68DA
:104CA00080229B5804221A437B6880215A50A423F7
:104CB000FB181B680422134011D09C23FB181B68AF
:104CC000012213400BD07B681B6804221A627B68A8
:104CD00080229B5802221A437B6880215A50A423C9
:104CE000FB181B680822134017D0A023FB181B6871
:104CF0002022134005D19C23FB181B68012213407E
:104D00000BD07B681B6808221A627B6880229B5844
:104D100008221A437B6880215A50A423FB181A6882
:104D200080231B01134013D0A023FB181A68802393
:104D3000DB0413400CD07B681B68802212011A62CE
:104D40007B6880229B5820221A437B6880215A501E
:104D50007B6880229B58002B00D1F7E1A423FB182D
:104D60001B68202213400ED0A023FB181B682022B2
:104D7000134008D07B685B6E002B04D07B685B6EB1
:104D80007A68100098477B6880229B5894217A1893
:104D900013607B681B689B6840221340402B04D043
:104DA0007B181B682822134047D07B68180000F04E
:104DB000F7FC7B681B689B6840221340402B37D16F
:104DC000EFF310833B663B6E90203A18136001238B
:104DD0007B667B6E83F31088C0467B681B689A688D
:104DE0007B681B6840218A439A603B181B68BB663E
:104DF000BB6E83F31088C0467B681B6F002B12D0FC
:104E00007B681B6F144A5A637B681B6F1800FEF7A0
:104E1000D9FC031E1AD07B681B6F5A6B7B681B6F13
:104E20001800904712E07B68180000F0A5F90DE02B
:104E30007B68180000F0A0F908E07B68180000F01B
:104E40009BF97B688022002199507FE1C0467DE17B
:104E50000F08000020010004655800087B681B6EE5
:104E6000012B00D031E1A423FB181B681022134052
:104E700000D12AE1A023FB181B681022134000D1A7
:104E800023E17B681B6810221A627B681B689B68A1
:104E900040221340402B00D09BE07B681B6F1B68B7
:104EA0005A687E217B181A807B181B88002B00D142
:104EB0004EE17B6858229B5A7A1812889A4200D396
:104EC00046E17B687A185A2112885A527B681B6F18
:104ED0009B69202B6ED0EFF310833B633B6BBB676A
:104EE00001237B637B6B83F31088C0467B681B6860
:104EF0001A687B681B689A490A401A60BB6FBB63DB
:104F0000BB6B83F31088C046EFF31083FB63FB6B2E
:104F10007B6701233B643B6C83F31088C0467B684E
:104F20001B689A687B681B6801218A439A607B6FC3
:104F30007B647B6C83F31088C046EFF31083BB6403
:104F4000BB6C3B670123FB64FB6C83F31088C0469A
:104F50007B681B689A687B681B6840218A439A605B
:104F60003B6F3B653B6D83F31088C0467B68202216
:104F7000DA677B6800221A66EFF310837B657B6D2E
:104F8000FB660123BB65BB6D83F31088C0467B685D
:104F90001B681A687B681B6810218A431A60FB6EC5
:104FA000FB65FB6D83F31088C0467B681B6F1800A0
:104FB000FEF7D0FB7B6858229A5A7B685A215B5ACD
:104FC0009BB2D31A9AB27B681100180000F0DCF88B
:104FD000BEE07B685822995A7B685A229B5A9AB243
:104FE0008E203B188A1A1A807B685A229B5A9BB2E1
:104FF000002B00D1AEE03B181B88002B00D1A9E0AC
:10500000EFF31083FB60FB6888243A1913600123D7
:105010003B613B6983F31088C0467B681B681A6854
:105020007B681B684F490A401A603B191B687B610B
:105030007B6983F31088C046EFF31083BB61BB69C3
:1050400084243A1913600123FB61FB6983F3108800
:10505000C0467B681B689A687B681B6801218A438D
:105060009A603B191B683B623B6A83F31088C04619
:105070007B682022DA677B6800221A667B68002240
:105080005A66EFF310837B627B6A80243A191360BF
:105090000123BB62BB6A83F31088C0467B681B6830
:1050A0001A687B681B6810218A431A603B191B68C9
:1050B000FB62FB6A83F31088C0463B181A887B6842
:1050C0001100180000F060F844E0A423FB181A68EF
:1050D00080235B03134010D09C23FB181A688023A5
:1050E000DB03134009D07B681B68802252031A62DD
:1050F0007B68180000F0F8FB2FE0A423FB181B6866
:10510000802213400FD0A023FB181B68802213407D
:1051100009D07B689B6E002B1ED07B689B6E7A68E3
:105120001000984718E0A423FB181B684022134086
:1051300013D0A023FB181B68402213400DD07B68BE
:10514000180000F0A6FB08E0C04606E0C04604E0F8
:10515000C04602E0C04600E0C046BD462BB090BD50
:10516000FFFEFFFFDFFEFFFF80B582B000AF78607B
:10517000C046BD4602B080BD80B582B000AF786049
:10518000C046BD4602B080BD80B582B000AF786039
:105190000A00BB1C1A80C046BD4602B080BD00009C
:1051A00080B588B000AF78601E23FB1800221A700B
:1051B0007B689A687B681B691A437B685B691A4342
:1051C0007B68DB6913437B617B681B681B688D4AC6
:1051D000134019007B681B687A690A431A607B6870
:1051E0001B685B68884A134019007B68DA687B6833
:1051F0001B680A435A607B689B697B617B681B6AFA
:105200007A6913437B617B681B689B687F4A134004
:1052100019007B681B687A690A439A607B681B687F
:105220007B4A934227D17B4B1B6B03221340032BFA
:105230000DD01BD8022B14D018D8002B02D0012B74
:105240000AD013E01F23FB1800221A7021E01F234D
:10525000FB1802221A701CE01F23FB1804221A708C
:1052600017E01F23FB1808221A7012E01F23FB18F7
:1052700010221A700DE07B681B68674A934204D1C4
:105280001F23FB1800221A7003E01F23FB181022B3
:105290001A707B68DA6980231B029A425DD11F2352
:1052A000FB181B78082B15D018DC042B0DD015DC4F
:1052B000002B02D0022B05D010E0FFF735FB0300D6
:1052C000BB6112E0554BBB610FE0FFF7BFFA030073
:1052D000BB610AE080231B02BB6106E00023BB61C7
:1052E0001E23FB1801221A70C046BB69002B00D197
:1052F0007BE0BB695A007B685B685B08D2187B68FF
:105300005B6819001000FAF71BFF03009BB23B61BA
:105310003B690F2B1CD93A6980235B029A4217D252
:105320003B699AB20E203B180F218A431A803B69D1
:105330005B089BB20722134099B23B183A181288B7
:105340000A431A807B681B683A181288DA604CE0BE
:105350001E23FB1801221A7047E01F23FB181B783D
:10536000082B15D018DC042B0DD015DC002B02D037
:10537000022B05D010E0FFF7D7FA0300BB6112E063
:10538000264BBB610FE0FFF761FA0300BB610AE047
:1053900080231B02BB6106E00023BB611E23FB18B8
:1053A00001221A70C046BB69002B1ED07B685B6867
:1053B0005A08BB69D2187B685B6819001000FAF7BD
:1053C000BFFE03009BB23B613B690F2B09D93A69D1
:1053D00080235B029A4204D27B681B683A69DA60D8
:1053E00003E01E23FB1801221A707B6800225A6614
:1053F0007B6800229A661E23FB181B781800BD46A6
:1054000008B080BDF369FFFFFFCFFFFFFFF4FFFF90
:1054100000380140001002400044004000127A00B1
:1054200080B582B000AF78607B685B6A0122134070
:105430000BD07B681B685B684A4A134019007B6885
:105440009A6A7B681B680A435A607B685B6A02221F
:1054500013400BD07B681B685B68434A13401900FC
:105460007B68DA6A7B681B680A435A607B685B6A00
:10547000042213400BD07B681B685B683B4A1340D7
:1054800019007B681A6B7B681B680A435A607B684B
:105490005B6A082213400BD07B681B685B68344A48
:1054A000134019007B685A6B7B681B680A435A607B
:1054B0007B685B6A102213400BD07B681B689B687B
:1054C0002C4A134019007B689A6B7B681B680A435F
:1054D0009A607B685B6A202213400BD07B681B6854
:1054E0009B68254A134019007B68DA6B7B681B6850
:1054F0000A439A607B685B6A402213401DD07B6838
:105500001B685B681D4A134019007B681A6C7B6836
:105510001B680A435A607B681A6C80235B039A42BB
:105520000BD17B681B685B68154A134019007B68C8
:105530005A6C7B681B680A435A607B685B6A8022EE
:1055400013400BD07B681B685B680E4A1340190040
:105550007B689A6C7B681B680A435A60C046BD46EC
:1055600002B080BDFFFFFDFFFFFFFEFFFFFFFBFF5F
:10557000FF7FFFFFFFEFFFFFFFDFFFFFFFFFEFFFFB
:10558000FFFF9FFFFFFFF7FF80B586B002AF786097
:105590007B68802200219950FDF7F4FF0300FB6037
:1055A0007B681B681B6808221340082B0CD1FB6822
:1055B000802291037868174A0092002200F02CF8AC
:1055C000031E01D0032321E07B681B681B680422B3
:1055D0001340042B0CD1FB688022D10378680D4A5C
:1055E0000092002200F018F8031E01D003230DE002
:1055F0007B6820229A677B682022DA677B6800221A
:105600001A667B6874220021995400231800BD4655
:1056100004B080BDFFFFFF0180B594B000AFF8601B
:10562000B9603B60FB1D1A70A3E0BB6D013300D174
:105630009FE0FDF7A7FF02003B68D31ABA6D9A42BC
:1056400002D3BB6D002B3DD1EFF31083BB62BB6A6D
:105650007B640123FB62FB6A83F31088C046FB680E
:105660001B681A68FB681B684C490A401A607B6C0F
:105670003B633B6B83F31088C046EFF310837B637F
:105680007B6B3B640123BB63BB6B83F31088C04619
:10569000FB681B689A68FB681B6801218A439A6053
:1056A0003B6CFB63FB6B83F31088C046FB682022D6
:1056B0009A67FB682022DA67FB68742200219954FC
:1056C000032367E0FB681B681B680422134050D06B
:1056D000FB681B68DA6980231B011A4080231B01C9
:1056E0009A4246D1FB681B68802212011A62EFF3CE
:1056F00010833B613B69FB6401237B617B6983F31E
:105700001088C046FB681B681A68FB681B68234941
:105710000A401A60FB6CBB61BB6983F31088C0460A
:10572000EFF31083FB61FB69BB6401233B623B6ABF
:1057300083F31088C046FB681B689A68FB681B6887
:1057400001218A439A60BB6C7B627B6A83F3108879
:10575000C046FB6820229A67FB682022DA67FB6854
:10576000802220219950FB68742200219954032340
:1057700010E0FB681B68DB69BA681340BA68D31A8B
:105780005A425341DBB21A00FB1D1B789A4200D1EA
:105790004BE700231800BD4614B080BD5FFEFFFF3D
:1057A00080B58EB000AF7860EFF310837B617B69CA
:1057B0007B630123BB61BB6983F31088C0467B68B0
:1057C0001B681A687B681B6825490A401A607B6B56
:1057D000FB61FB6983F31088C046EFF310833B62E3
:1057E0003B6A3B6301237B627B6A83F31088C0467C
:1057F0007B681B689A687B681B6801218A439A60F2
:105800003B6BBB62BB6A83F31088C0467B681B6E30
:10581000012B18D1EFF31083BB60BB68FB6201233F
:10582000FB60FB6883F31088C0467B681B681A68BE
:105830007B681B6810218A431A60FB6A3B613B69E5
:1058400083F31088C0467B682022DA677B680022D9
:105850001A667B6800225A66C046BD460EB080BDFF
:10586000DFFEFFFF80B584B000AF78607B685B6AC5
:10587000FB60FB685A2200219952FB6852220021EA
:105880009952FB681800FFF777FCC046BD4604B08C
:1058900080BD80B586B000AF7860EFF31083BB6049
:1058A000BB687B610123FB60FB6883F31088C04603
:1058B0007B681B681A687B681B6840218A431A60F2
:1058C0007B693B613B6983F31088C0467B6820227B
:1058D0009A677B6800229A667B681800FFF744FC91
:1058E000C046BD4606B080BD80B582B000AF7860CE
:1058F000C046BD4602B080BD014B18687047C04627
:105900002400002070B500260C4D0D4C641BA41023
:10591000A64209D1002604F051FD0A4D0A4C641B31
:10592000A410A64205D170BDB300EB5898470136CC
:10593000EEE7B300EB5898470136F2E76CAB00088E
:105940006CAB00086CAB000870AB000810B5034BE3
:105950000100186800F082F810BDC0462400002045
:1059600010B5034B0100186800F00CF810BDC046DC
:105970002400002003008218934200D17047197060
:105980000133F9E770B50500002910D00C1F23681A
:10599000002B00DAE418280003F092F91D4A13687E
:1059A000002B05D163601460280003F091F970BDED
:1059B000A34208D9216860188342F3D118685B6854
:1059C00041182160EEE71A005B68002B01D0A3426A
:1059D000F9D911685018A0420BD120680918501845
:1059E00011608342E0D118685B6841181160536010
:1059F000DAE7A04202D90C232B60D5E721686018B2
:105A0000834203D118685B68411821606360546069
:105A1000CAE7C046A005002070B50F4E0D003168E2
:105A20000400002902D100F005FF306029002000A9
:105A300000F000FF431C0AD00323C51C9D43A8426D
:105A400007D0291A200000F0F5FE431C01D10125E2
:105A50006D42280070BDC046A4050020F7B50322A2
:105A6000CB1C9343083306001F000C2B32D20C27AB
:105A7000B94231D8300003F023F9324D2B681C00B5
:105A8000002C2ED139003000FFF7C6FF0400431C64
:105A90001ED12C682500002D4AD123682900E31867
:105AA0003000019300F0C6FE019B834243D123687E
:105AB0000337FF1A03239F4308370C2F00D20C270C
:105AC00039003000FFF7A8FF431C34D02368DF19EA
:105AD000276013E0002BCBDA0C230025336028006D
